:020000040800F2
:100000008005002045010008A51E0008A71E000865
:10001000AB1E0008AF1E0008B31E00080000000061
:10002000000000000000000000000000B71E0008F3
:10003000B91E000800000000BB1E0008BD1E00081D
:100040005F0100085F0100085F0100085F01000810
:100050005F0100085F010008DB3B00085F0100084A
:100060005F0100085F0100085F0100085F010008F0
:100070005F0100085F0100085F0100085F010008E0
:100080005F0100085F0100085F0100085F010008D0
:100090005F0100085F0100085F0100085F010008C0
:1000A0005F0100085F0100085F0100085F010008B0
:1000B000254100085F010008F53C00085F010008C9
:1000C0005F0100085F0100085F0100085F01000890
:1000D0005F0100085F0100085F0100086544000837
:1000E0000B3C00085F0100085F0100085F01000889
:1000F0005F0100085F0100085F0100085F01000860
:100100005F0100085F0100085F0100085F0100084F
:100110005F0100085F0100085F0100085F0100083F
:100120005F0100085F0100085F0100085F0100082F
:10013000DFF80CD004F004FE00480047651E0008FC
:10014000800500200648804706480047FEE7FEE796
:10015000FEE7FEE7FEE7FEE7FEE7FEE7FEE7FEE777
:1001600047020008310100080CB500200190009002
:100170006C48006840F480306A49086000BF6948F4
:10018000006800F4003000900198401C0190009835
:1001900018B90198B0F5A06FF1D16248006800F479
:1001A000003010B10120009001E000200090009884
:1001B000012843D15C48006840F010005A490860AB
:1001C0000846006820F0030008600846006840F018
:1001D0000200086053484068524948600846406839
:1001E00048600846406840F48060486008464068BF
:1001F00020F47C1048600846406840F4E8104860ED
:100200000846006840F08070086000BF45480068FC
:1002100000F000700028F9D04248406820F0030048
:10022000404948600846406840F00200486000BF0E
:100230003C48406800F00C000828F9D10CBD10B50E
:10024000FFF792FF10BD10B53648006840F001007E
:1002500034490860084640683449084031494860DC
:1002600008460068324908402E4908600846006880
:1002700020F4802008600846406820F4FE004860B2
:100280004FF41F008860FFF7DAFF4FF00060294944
:10029000086010BD10B5002100200022214B5B68D2
:1002A00003F00C0121B1042906D0082928D107E068
:1002B000214B224C236027E01F4B204C236023E07E
:1002C000184B5B6803F47010164B5B6803F48032C4
:1002D000022303EB904022B9194B4343174C236090
:1002E0000DE0104B5B6803F4003323B1144B434320
:1002F000124C236003E0104B4343104C236003E097
:100300000D4B0E4C236000BF00BF064B5B68C3F370
:1003100003130C4CE15C094B1B68CB40074C23607A
:1003200010BD000000100240002002400000FFF855
:10033000FFFFF6FE08ED00E000127A00000000204A
:1003400000093D000400002031490143314A116099
:10035000704770B5002100230F22C47804B32D4CE0
:10036000246804F4E064C4F5E064210AC1F10403E4
:10037000CA40447804FA03F1847814402143090107
:10038000254C0678A155047804F01F050124AC40E3
:1003900005786D11AD0005F1E025C5F8004109E0D3
:1003A000047804F01F050124AC401C4D067876113A
:1003B00045F8264070BD1A4A0A400243154B1B1FE0
:1003C0001A60704739B1134A121D12680243114B6B
:1003D0001B1D1A6006E00F4A121D126882430D4B66
:1003E0001B1D1A607047042808D14FF0E0210969ED
:1003F00041F004014FF0E022116107E04FF0E021ED
:10040000096921F004014FF0E022116170470000FA
:100410000000FA050CED00E000E400E080E100E0FF
:1004200080FFFF1F002044490860091D0860091D66
:100430000860091D086041483F4914310860704751
:1004400000213D498279002A3AD00A4612680368A1
:100450009A430B461A600A1D126803689A430B1DE3
:100460001A60027911440A6803681A430A60324A22
:100470000832126803689A432F4B08331A601A1D1A
:10048000126803689A432C4B0C331A604279102A85
:100490000ED11A1F126803681A43274B08331A60DB
:1004A0001A1D126803681A43234B0C331A600DE0BF
:1004B0002149427911440A6803681A430A6005E039
:1004C000027911440A6803689A430A607047002160
:1004D000016001710C214171002181717047164941
:1004E000103109680143144A103211607047014607
:1004F0000020114A143212680A400AB1012000E0BB
:10050000002070470C4914310860704701460020F4
:100510000022094B1B6803EA0102074B14331B68D6
:100520000B4013B10AB1012000E0002070470249DE
:10053000143108607047000000040140FFFF0F0005
:1005400010B50446CC48844208D10121042000F0B3
:100550002DFB0021042000F029FB46E0C74884421F
:1005600008D10121082000F021FB0021082000F023
:100570001DFB3AE0C248844208D10121102000F05E
:1005800015FB0021102000F011FB2EE0BD48844235
:1005900008D10121202000F009FB0021202000F0DB
:1005A00005FB22E0B848844208D10121402000F038
:1005B000FDFA0021402000F0F9FA16E0B348844229
:1005C00008D10121802000F0F1FA0021802000F004
:1005D000EDFA0AE0AE48844207D10121801500F00F
:1005E000E5FA0021A01500F0E1FA10BD10B50121D7
:1005F000084600F0DBFA0021012000F0D7FA10BD18
:100600002DE9F041024600250026002000230024A9
:10061000002791F803C00CF00F0591F803C00CF00F
:10062000100CBCF1000F03D091F802C04CEA050594
:1006300091F800C0BCF1000F31D0146800202BE00D
:100640004FF0010C0CFA00F3B1F800C00CEA0306FD
:100650009E4220D183004FF00F0C0CFA03F7BC43ED
:1006600005FA03FC4CEA040491F803C0BCF1280F1E
:1006700006D14FF0010C0CFA00FCC2F814C00AE0DD
:1006800091F803C0BCF1480F05D14FF0010C0CFAF2
:1006900000FCC2F810C0401C0828D1D31460B1F887
:1006A00000C0BCF1FF0F34DD546800202EE000F1E3
:1006B000080C4FF0010808FA0CF3B1F800C00CEA7E
:1006C00003069E4221D183004FF00F0C0CFA03F772
:1006D000BC4305FA03FC4CEA040491F803C0BCF1E6
:1006E000280F05D100F1080C08FA0CF8C2F81480A4
:1006F00091F803C0BCF1480F07D100F1080C4FF08E
:10070000010808FA0CF8C2F81080401C0828CED363
:100710005460BDE8F0814FF6FF71018002218170C5
:100720000421C17070470246002093680B400BB152
:10073000012000E0002070470146886880B27047C1
:1007400002460020D3680B400BB1012000E00020DE
:1007500070470146C86880B27047016170474161C7
:1007600070470AB1016100E041617047C1607047A4
:100770004FF480320A4382618161826182698269B9
:10078000704702460020434B18684FF680731840AC
:1007900040EA021008433F4B186070473E49C86169
:1007A0007047F0B50A46002300240021002500F020
:1007B0000046B6F1004F02D1364EF16901E0354EE8
:1007C0007168C0F3034583B200F44016B6F5401FCC
:1007D00008D121F070612F4E766826F070662D4F9B
:1007E0007E6012E000F48016B6F5801F06D1032665
:1007F00006FA05F4A14341F0706106E0460D3601AA
:1008000003FA06F6B14341F0706122B1460D36019C
:1008100003FA06F6314300F00046B6F1004F02D16C
:100820001C4EF16101E01B4E7160F0BD30B500223D
:100830008B071C0F0F2303FA04F2164B08338C109E
:1008400053F824309343134C08348D1044F825306A
:1008500023468C1053F824308C07240F00FA04F43C
:1008600023430C4C08348D1044F8253030BD0A4920
:10087000DC3108607047000000080140000C0140B6
:10088000001001400014014000180140001C01400C
:10089000002001400000014000002042DF480068C5
:1008A00040F00100DD49086008464068DC49084026
:1008B000DA49486008460068DA490840D7490860C4
:1008C0000846006820F4802008600846406820F44C
:1008D000FE0048604FF41F0088607047CF490968E8
:1008E00021F48031CD4A11601146096821F480213C
:1008F0001160B0F5803F03D0B0F5802F0ED106E037
:10090000C649096841F48031C44A116007E0C3490F
:10091000096841F4A021C14A116000E000BF00BF96
:10092000704710B501460022002300204A11012A19
:1009300002D1BA4C236806E0022A02D1B74C236ADE
:1009400001E0B64C636A01F01F02012494401C4090
:100950000CB1012000E0002010BD38B5002000904F
:100960000024002500BF3120FFF7DBFF054600987B
:10097000401C00900098B0F5A06F01D0002DF2D07F
:100980003120FFF7CEFF08B1012400E0002420460B
:1009900038BD01460020A14A106820F0F80040EA66
:1009A000C10010607047A0490860704702460020EF
:1009B0009A4B586820F47C1042EA01031843974B85
:1009C0005860704798490866704701460020934A6E
:1009D000506820F003000843506070478F4840681B
:1009E00000F00C007047014600208C4A506820F04F
:1009F000F00008435060704701460020874A506865
:100A000020F4E06008435060704701460020834AAC
:100A1000506820F4605040EAC1005060704729B12E
:100A20007E4A527A02437D4B5A7204E07B4A527AE4
:100A300082437A4B5A7270477B49D83108607047BD
:100A400001460020754A506820F440400843506039
:100A500070470021714A20321170704A82F82010CC
:100A6000012802D004280AD104E001216B4A203277
:100A7000117005E00521694A2032117000E000BFC5
:100A800000BF70476949086070476449096A0143BB
:100A9000624A11627047654944390860704730B551
:100AA00000210022002400235C4D6D6805F00C013C
:100AB00021B1042905D0082923D105E05C4D05604A
:100AC00022E05B4D05601FE0544D6D6805F4701227
:100AD000524D6D6805F48034022505EB92421CB935
:100AE000544D554305600BE04C4D6D6805F40035E1
:100AF0001DB1504D5543056002E04D4D5543056015
:100B000002E04B4D056000BF00BF444D6D6805F02D
:100B1000F0010909484D6B5C0568DD4045603F4DBB
:100B20006D6805F4E061090A434D6B5C4568DD4082
:100B300085603A4D6D6805F46051C90A3E4D6B5CA5
:100B40004568DD40C560354D6D6805F44041890B51
:100B50003A4D6B5CC568B5FBF3F5056130BD29B155
:100B60002E4A526902432D4B5A6104E02B4A5269C6
:100B700082432A4B5A61704729B1284A926902433D
:100B8000264B9A6104E0254A92698243234B9A617D
:100B9000704729B1214AD2690243204BDA6104E04F
:100BA0001E4AD26982431D4BDA61704729B11B4A44
:100BB000D2680243194BDA6004E0184AD2688243D3
:100BC000164BDA60704729B1144A12690243134B7D
:100BD0001A6104E0114A12698243104B1A6170478E
:100BE00012494039086070470F49C86470470B4983
:100BF000C87170470948406A40F0807007494862F0
:100C0000704701460020054A92680A400AB1012057
:100C100000E00020704701498872704700100240D0
:100C20000000FFF8FFFFF6FE00004242800442424F
:100C300000127A0000093D0014000020240000206A
:100C400010B50446FE48844208D10121C014FFF7C4
:100C5000ADFF0021E014FFF7A9FFC4E0B4F1804F1D
:100C600008D101210846FFF7AEFF00210120FFF760
:100C7000AAFFB8E0F348844208D101210220FFF71F
:100C8000A2FF00210220FFF79EFFACE0EE48844265
:100C900008D101210420FFF796FF00210420FFF76F
:100CA00092FFA0E0E948844208D101210820FFF723
:100CB0008AFF00210820FFF786FF94E0E448844281
:100CC00008D101211020FFF77EFF00211020FFF73F
:100CD0007AFF88E0DF48844208D101212020FFF715
:100CE00072FF00212020FFF76EFF7CE0DA4884428B
:100CF00008D101214014FFF759FF00216014FFF7CC
:100D000055FF70E0D548844209D10121C804FFF79E
:100D10004DFF00214FF40020FFF748FF63E0D0486B
:100D2000844209D101210805FFF740FF00214FF45B
:100D30008010FFF73BFF56E0CA48844209D10121E9
:100D40004805FFF733FF00214FF40010FFF72EFF97
:100D500049E0C548844208D101214020FFF733FF14
:100D600000214020FFF72FFF3DE0C048844208D11A
:100D700001218020FFF727FF00218020FFF723FFBC
:100D800031E0BB48844208D101218015FFF71BFFE9
:100D90000021A015FFF717FF25E0B648844209D1CE
:100DA00001210804FFF702FF00214FF48030FFF714
:100DB000FDFE18E0B048844209D101214804FFF744
:100DC000F5FE00214FF40030FFF7F0FE0BE0AB48DA
:100DD000844208D101218804FFF7E8FE00214FF486
:100DE0008020FFF7E3FE10BD00220288944B98425A
:100DF0000ED0994B98420BD0B0F1804F08D0914B58
:100E0000984205D0904B984202D0904B984204D122
:100E10004FF68F731A404B881A438D4B984207D078
:100E20008C4B984204D04FF6FF431A40CB881A43AC
:100E300002808B8883850B880385814B98420BD079
:100E4000854B984208D08B4B984205D08A4B9842EC
:100E500002D08A4B984201D10B7A03860123838208
:100E6000704770B5002400220023058C4FF6FE76F3
:100E700035400584028C8388048B4FF68F752C4097
:100E8000B51E2C400D882C43751E2A400D892A431F
:100E90004D882A436A4DA8420BD06F4DA84208D016
:100EA000744DA84205D0744DA84202D0734DA8429B
:100EB00013D14FF6F7752A404D892A434FF6FB753B
:100EC0002A408D882A434FF6FF652B404FF6FF5589
:100ED0002B408D892B43CD892B4383800483CD8880
:100EE0008586028470BD70B5002400220023058C25
:100EF0004FF6EF7635400584028C8388048B48F6E4
:100F0000FF752C404FF6FF452C400D884FF6FF76BD
:100F100006EA05252C434FF6DF752A400D8906EABF
:100F200005152A434D8806EA05152A43444DA84273
:100F300002D0494DA8421DD14FF67F752A404D89F8
:100F40004FF6FF7606EA05152A434FF6BF752A408D
:100F50008D8806EA05152A434FF6FF352B404FF2E0
:100F6000FF752B408D8906EA85052B43CD8906EA5E
:100F700085052B4383800483CD880587028470BD5B
:100F800070B5002400220023058C4FF6FF66354023
:100F90000584028C8388848B4FF68F752C404FF626
:100FA000FC752C400D882C434FF6FF552A400D89C7
:100FB0004FF6FF7606EA05252A434D8806EA052501
:100FC0002A431F4DA84202D0234DA8421DD14FF203
:100FD000FF752A404D894FF6FF7606EA05252A431C
:100FE0004FF6FF352A408D8806EA05252A434EF63E
:100FF000FF752B404DF6FF752B408D8906EA0515D0
:101000002B43CD8906EA05152B4383808483CD8845
:101010008587028470BD70B5002200230024058CF2
:101020004EF6FF7635400584038C8488828B48F623
:10103000FF752A404FF6FF452A400D8820E000004A
:10104000002C01400004004000080040000C00405B
:10105000001000400014004000340140004C0140EA
:10106000005001400054014000180040001C0040A6
:101070000020004000400140004401400048014081
:101080004FF6FF7606EA05252A434DF6FF752B40FD
:101090000D8906EA05352B434D8806EA05352B43B5
:1010A000FA4DA84202D0FA4DA84208D14BF6FF757E
:1010B0002C408D894FF6FF7606EA85152C438480F7
:1010C0008283CD88A0F84050038470BD828B4FF29C
:1010D000FF331A408283828B4FF6FF7303EA0123AA
:1010E0001A4382837047F0B50C4615460022002152
:1010F0000026078C4EF6FF7C07EA0C070784828BDC
:10110000018C4FF6FF7707EA043640F6FF473A4076
:101110004FF6FF7707EA05273A434FF6FF7707EACE
:1011200003373A43D94FB8420ED0D94FB8420BD00B
:10113000B0F1804F08D0D74FB84205D0D64FB84253
:1011400002D0D64FB84206D14DF6FF77394046F46B
:101150008057394305E047F6FF57394044F480573C
:10116000394382830184F0BD828B4FF6F3731A40BA
:101170008283828B0A4382837047F0B50C46154602
:10118000002200210026078C4FF6FF6C07EA0C07AF
:101190000784828B018C4FF6FF7707EA04264FF60F
:1011A0000C773A404FF6FF7707EA03172F433A438D
:1011B000B64FB8420ED0B64FB8420BD0B0F1804F08
:1011C00008D0B44FB84205D0B34FB84202D0B34FA5
:1011D000B84206D14FF6FF57394046F4807739437D
:1011E00005E04FF2FF57394044F48077394382835A
:1011F0000184F0BD028B4FF2FF331A400283028B51
:101200004FF6FF7303EA01231A4302837047F0B5D8
:101210000C461546002200210026078C4FF6EF7C75
:1012200007EA0C070784028B018C4FF6FF7707EA69
:10123000041640F6FF473A404FF6FF7707EA0337B8
:101240003A434FF6FF7707EA05273A438F4FB842F4
:101250000ED08F4FB8420BD0B0F1804F08D08D4FD9
:10126000B84205D08C4FB84202D08C4FB84206D15C
:101270004FF6DF77394046F01007394305E04FF667
:101280005F77394044F01007394302830184F0BD91
:10129000028B4FF6F3731A400283028B0A430283D8
:1012A0007047F0B50C46154600220021068C4FF61B
:1012B000FE773E400684028B018C4FF60C7632405E
:1012C0007E1C06EA03162E433243704EB0420ED007
:1012D0006F4EB0420BD0B0F1804F08D06D4EB0428F
:1012E00005D06D4EB04202D06C4EB04206D14FF6E2
:1012F000FD76314044F00106314305E04FF6F576C6
:10130000314044F00106314302830184F0BD70B5E1
:1013100005460C465D4885420ED05D4885420BD09F
:10132000B5F1804F08D05B48854205D05A488542C8
:1013300002D05A48854200D100E000BF208850B951
:101340002389A28861882846FFF7ABFFE1882846F9
:10135000FFF79EFF25E0208804280AD12389A28870
:1013600061882846FFF753FFE1882846FFF742FFD0
:1013700017E0208808280AD12389A2886188284696
:10138000FFF7FBFEE1882846FFF7EEFE09E0238920
:10139000A28861882846FFF7A6FEE1882846FFF765
:1013A00095FE70BD2DE9F04105460C46002601274B
:1013B000608808B9022600E00026A088012801D133
:1013C000022700E001272088A0B92389A28861882C
:1013D0002846FFF766FFE1882846FFF759FF238973
:1013E0003A4631462846FFF712FFE1882846FFF7C4
:1013F00001FF13E02389A28861882846FFF707FFD1
:10140000E1882846FFF7F6FE23893A46314628460A
:10141000FFF747FFE1882846FFF73AFFBDE8F08174
:101420000A884B881A438B881A43CB881A430B8946
:101430001A434B891A438B891A43A0F844207047FA
:101440004FF6FF71818000210180C18041800172CF
:1014500070470021018041808180C18001814181EC
:101460008181C181704700210180418001218180FB
:101470000021C1800181704700210180418081806D
:10148000C18001814181818170470000002C0140B1
:10149000003401400004004000080040000C0040FF
:1014A00021B1028842F00102028004E002884FF676
:1014B000FE731A400280704731B1B0F8442042F404
:1014C0000042A0F8442005E0B0F84420C2F30E0228
:1014D000A0F8442070471AB183890B43838102E04E
:1014E00083898B43838170478182704741EA02037D
:1014F000A0F8483070471AB183890B43838102E01A
:1015000083898B438381704701894FF6F8721140BC
:10151000018170470A46002101894FF68F731940F7
:1015200011430181704730B504460D4629462046D7
:10153000FFF7F0FF208940F00700208130BD2DE942
:10154000F04104460D4616461F46602D06D13B4627
:10155000012231462046FFF75AFE05E03B460122B4
:1015600031462046FFF79DFE29462046FFF7D2FF71
:10157000208940F007002081BDE8F08130B50C469D
:1015800000210189C9B24FF6FF7505EA032515430D
:1015900025432943018130BD2DE9F04105460E4622
:1015A00017469846002443463A4631462846FFF7F8
:1015B000E5FF2C894FF6F870044044F007044FF61D
:1015C0008F70044044F070042C81BDE8F081F0B5C8
:1015D00004460D4616461F463B46324629462046DF
:1015E000FFF7CCFF208940F480402081F0BD0185C9
:1015F000828270470A46002101884FF68F73194096
:10160000114301807047F0B50C4615461E46002177
:10161000002200230189028B038C4FF6F8773940B2
:1016200021434FF6FC473A4040F201173A434FF648
:10163000DD773B404FF6FF7707EA06172F433B4322
:10164000018102830384F0BD0A460021018B4FF61D
:101650008F7319401143018370470A460021018BA3
:1016600048F6FF7319404FF6FF7303EA022319434C
:10167000018370470A460021818B4FF68F73194012
:101680001143818370470A460021818B48F6FF731E
:1016900019404FF6FF7303EA022319438183704711
:1016A00021B1028842F08002028004E002884FF6F5
:1016B0007F731A400280704721B1828842F0040291
:1016C000828004E082884FF6FB731A408280704764
:1016D00021B1828842F00802828004E082884FF6BD
:1016E000F7731A408280704721B1828842F001026C
:1016F000828004E082884FF6FE731A408280704731
:101700000A460021018B4FF6F773194011430183FC
:1017100070470A460021018B4FF2FF7319404FF6C4
:10172000FF7303EA02231943018370470A4600212D
:10173000818B4FF6F77319401143818370470A4636
:101740000021818B4FF2FF7319404FF6FF7303EABC
:1017500002231943818370470A460021018B4FF60B
:10176000FB7319401143018370470A460021018B26
:101770004FF6FF3319404FF6FF7303EA0223194374
:10178000018370470A460021818B4FF6FB73194095
:101790001143818370470A460021818B4FF6FF3346
:1017A00019404FF6FF7303EA022319438183704700
:1017B0000A460021018B4FF67F73194011430183C4
:1017C00070470A460021018BC1F30E014FF6FF73EB
:1017D00003EA02231943018370470A460021818BE3
:1017E0004FF67F7319401143818370470A460021E9
:1017F000818BC1F30E014FF6FF7303EA02231943F5
:10180000818370470A460021018C4FF6FD73194011
:101810001143018470470A460021018C4FF6F7738B
:1018200019401143018470470A460021018C4FF68C
:10183000DF7319404FF6FF7303EA02131943018463
:1018400070470A460021018C4FF67F7319404FF60E
:10185000FF7303EA02131943018470470A4600210B
:10186000018C4FF6FF5319404FF6FF7303EA022332
:101870001943018470470A460021018C4FF2FF731F
:1018800019404FF6FF7303EA02231943018470479E
:101890000A460021018C4DF6FF7319404FF6FF7385
:1018A00003EA023319430184704730B50023012451
:1018B0008C40A3B2048C9C430484048C02FA01F58E
:1018C000ADB22C43048430BD30B5002304248C40D9
:1018D000A3B2048C9C430484048C02FA01F5ADB2DB
:1018E0002C43048430BD70B5034600200024184604
:1018F000183001258D40ACB21D8CA5431D8409B163
:10190000082909D100EB6100056825F07005056024
:101910000568154305600EE00D1FC5F34E0528440C
:10192000056825F4E045056005684FF6FF7606EA90
:1019300002263543056070BD21B1028842F00202E3
:10194000028004E002884FF6FD731A40028070475F
:1019500021B1028842F00402028004E002884FF6BE
:10196000FB731A400280704721B1828842F08002E6
:10197000828004E082884FF67F731A40828070472D
:1019800002884FF6F7731A40028002880A430280E9
:10199000704782884FF68F731A40828082880A438C
:1019A0008280704702894FF6F8731A4002810289DB
:1019B0000A430281704702894FF67F731A40028101
:1019C00002890A430281704781847047818570478C
:1019D000818670470187704781877047A0F8401063
:1019E000704702884FF6FF431A40028002880A437C
:1019F000028070470146888E70470146088F704705
:101A00000146888F70470146B1F840007047014693
:101A1000888C70470146088D704702460020138A63
:101A20000B400BB1012000E000207047CA43028246
:101A3000704730B50246002000230024158A05EACD
:101A40000103958905EA010413B10CB1012000E0FE
:101A5000002030BDCA4302827047000010B5044622
:101A6000FB48844209D101218803FFF79FF8002138
:101A70004FF48040FFF79AF832E0F648844209D1EB
:101A800001214804FFF79FF800214FF40030FFF7D1
:101A90009AF825E0F048844209D101218804FFF733
:101AA00092F800214FF48020FFF78DF818E0EB4802
:101AB000844209D10121C804FFF785F800214FF4C1
:101AC0000020FFF780F80BE0E548844208D10121AF
:101AD0000805FFF778F800214FF48010FFF773F83E
:101AE00010BD2DE9F04786B005460E460024A246FB
:101AF00000BFA1460027B08900B100BF2F462C8A45
:101B00004CF6FF700440F08804432C82AC894EF6FA
:101B1000F3100440B08831890843718908430443B5
:101B2000AC81AC8A4FF6FF400440B0890443AC82DC
:101B300001A8FEF7B4FFC648874202D1DDF810A025
:101B400001E0DDF80CA0A88900F4004040B10AEBE8
:101B5000CA0000EB0A1031684900B0FBF1F807E059
:101B60000AEBCA0000EB0A1031688900B0FBF1F8FB
:101B70006420B8FBF0F004012009642101FB108906
:101B8000A88900F4004040B1322000EBC900B0FB4E
:101B9000F1F000F00700044308E0322000EB0910E8
:101BA0006421B0FBF1F000F00F0004432C8106B07B
:101BB000BDE8F0874FF41651016000218180C1809B
:101BC00001810C21418100218181704710B50246BD
:101BD0000020108A4FF2FF0318400B884C882343E3
:101BE0008C882343CC8823431843108210BD0021E6
:101BF000018041808180C180704721B1828942F497
:101C00000052828104E082894DF6FF731A4082817E
:101C10007047F0B50346002400260025002040F65A
:101C20006A17B94200D100BF1846C1F3421401F04F
:101C30001F06012707FA06F5012C01D10C3004E03C
:101C4000022C01D1103000E014301AB107682F4384
:101C5000076002E00768AF430760F0BD1AB1838AEE
:101C60000B43838202E0838A8B4383827047028A1C
:101C70004FF6F0731A400282028A0A4302827047CA
:101C800082894FF2FF731A40828182890A438281DE
:101C9000704721B1828942F00202828104E0828988
:101CA0004FF6FD731A4082817047028A4FF6DF7348
:101CB0001A400282028A0A430282704721B1028AD4
:101CC00042F48042028204E0028A4BF6FF731A401B
:101CD00002827047C1F308028280704701468888FB
:101CE000C0F308007047818941F00101818170478C
:101CF000028BD2B20283028B42EA01220283704736
:101D0000028B02F47F420283028B0A4302837047F4
:101D100021B1828A42F02002828204E0828A4FF658
:101D2000DF731A408282704721B1828A42F010022A
:101D3000828204E0828A4FF6EF731A4082827047F3
:101D400021B1828A42F00802828204E0828A4FF640
:101D5000F7731A408282704721B1828942F40042AF
:101D6000828103E08289C2F30E028281704721B131
:101D7000828A42F40062828204E0828A4FF2FF7318
:101D80001A4082827047828A4FF6FB731A40828221
:101D9000828A0A438282704721B1828A42F002021B
:101DA000828204E0828A4FF6FD731A408282704775
:101DB00002460020B1F5007F00D100BF13880B4020
:101DC0000BB1012000E00020704701F40072B2F571
:101DD000007F00D100BFCA430280704770B5024641
:101DE000002400230025002040F66A16B14200D1ED
:101DF00000BFC1F3421501F01F03012606FA03F3E9
:101E0000012D02D19689334006E0022D02D1168AB7
:101E1000334001E0968A33400C12012606FA04F49E
:101E20001688344013B10CB1012000E0002070BDD1
:101E300010B50022002340F66A14A14200D100BF71
:101E40000A1201249440A3B2DC43048010BD0000B8
:101E5000003801400044004000480040004C004071
:101E60000050004000F02EF84FF0E020006940F0F4
:101E700001004FF0E021086102F030FA01F067FF45
:101E800002F0A0FA01F02FFE01F066FE01F08AFEDA
:101E900000F058FA00F0D1F801F0ECFD01F0D6FDA9
:101EA00000BFFEE7704700BFFEE700BFFEE700BFD0
:101EB000FEE700BFFEE770477047704710B500F0BF
:101EC00049F810BD30B5284800684FF47A72B0FB6D
:101ED000F2F1B1F1807F01D301201DE021F07F40BC
:101EE000401E4FF0E022506150170F22002807DA01
:101EF00013071D0E1D4B00F00F04241F1D5503E09A
:101F000013071C0E1A4B1C5400BF00204FF0E02298
:101F1000906107201061002008B100BFFEE74FF07C
:101F2000E020006920F001004FF0E021086130BDA1
:101F300001B51049009808604FF0E020006940F0BA
:101F400001004FF0E021086100BF0A480068002846
:101F5000FBD108BD0748006820B106480068401E54
:101F600004490860704700000000002018ED00E000
:101F700000E400E02800002070B505460C4600F0A3
:101F80002CF9D02000F04CF900F0C0F9284600F000
:101F900047F900F0BBF9204600F042F900F0B6F92D
:101FA00000F030F970BD2DE9F04107460C461546AA
:101FB00000F013F9D02000F033F900F0A7F938460B
:101FC00000F02EF900F0A2F900F007F9D12000F09E
:101FD00027F900F09BF9002606E0012000F070F9D7
:101FE0002070641C701CC6B2681EB042F5DC002074
:101FF00000F066F9207000F005F9BDE8F08170B5D9
:102000000446002500F0E9F8D02000F009F900F0BE
:102010007DF9204600F004F900F078F900F0DDF8D1
:10202000D12000F0FDF800F071F9002000F048F92F
:10203000054600F0E7F8284670BD70B5002400257D
:1020400000BF06E0002500E06D1CB5F57A7FFBDBE4
:10205000641CB4F57A7FF5DB00216B20FFF78CFF61
:1020600004211920FFF788FF06211A20FFF784FFBB
:1020700008211C20FFF780FF18211B20FFF77CFFA1
:1020800070BD08B500200090012269467520FFF759
:102090008AFF9DF80000682804D0444802F0ECFE56
:1020A000002008BD9DF8001041A002F0E5FE0120CF
:1020B000F7E72DE9FE4304460D4617461E46DDE9C7
:1020C0000A89062269463B20FFF76DFF9DF8010053
:1020D0009DF8001040EA012000B220809DF8030026
:1020E0009DF8021040EA012000B228809DF805000A
:1020F0009DF8041040EA012000B2388006226946AB
:102100004320FFF750FF9DF801009DF8001040EAC2
:10211000012000B230809DF803009DF8021040EAD3
:10212000012000B2A8F800009DF805009DF80410F9
:1021300040EA012000B2A9F80000BDE8FE8338B5EE
:102140000446022269464120FFF72DFF9DF8010059
:102150009DF8001040EA012000B2208038BD2DE932
:10216000F84F8246022269464120FFF71CFF9DF886
:1021700001009DF8001040EA01200FFA80FB43F2B5
:102180009030584402F05EFC804600220D4B02F075
:10219000DCFB064600220C4B02F05FFB044602F01B
:1021A0007BFC00B2AAF80000BDE8F88F30600008A0
:1021B000204D505536303530204944203D2025648F
:1021C0000D0A00000080714000002A40002001E05C
:1021D000411CC8B20A28FBDB704710B580206C494F
:1021E000086040200860FFF7F1FF80206849091D62
:1021F0000860FFF7EBFF40206549091D0860FFF705
:10220000E5FF10BD10B580206149091D0860402020
:10221000091F0860FFF7DAFF80205D49086010BDE4
:1022200070B50446002520E004F0800018B180203D
:102230005749086003E080205549091D0860FFF7F1
:10224000C5FF402052490860FFF7C0FF40205049B9
:10225000091D0860072D02D18020091F0860600653
:10226000040EFFF7B3FF681CC5B2082DDCDB70BDA0
:1022700010B580204649091D0860FFF7A7FF4020E0
:1022800043490860FFF7A2FF40204149091D08604B
:10229000FFF79CFF80203E49086010BD10B58020EC
:1022A0003B490860FFF792FF402039490860FFF77B
:1022B0008DFF40203649091D0860FFF787FF10BDDC
:1022C00070B505460024002616E06006040E402086
:1022D0002F490860FFF77AFF2D480838006800F0A2
:1022E000800008B1601CC4B240202949091D086063
:1022F000FFF76CFF701CC6B2082EE6DB15B9FFF7BE
:10230000CDFF01E0FFF7B4FF204670BD10B580207F
:102310001F490860FFF75AFF40201D490860FFF77A
:1023200055FF1B480838006800F0800008B1012400
:1023300000E0002440201649091D0860FFF746FF11
:10234000204610BD08B501210820FEF715FCC0206D
:10235000ADF8000003208DF8020014208DF8030072
:1023600069460B481038FEF74BF9FFF74BFF08BDE5
:1023700070B50446FFF7E6FFFFF72FFF2046FFF793
:102380004FFFFFF7C3FF0546FFF73CFF284670BD30
:10239000100C01402DE9F04704464FF07C512046D7
:1023A00002F04AF9814625462E46FE48A0EB660615
:1023B00035462946484602F03FF98246294602F052
:1023C0003BF980464FF07F5102F033F9074629462A
:1023D00002F032F905462846BDE8F0872DE9F04FB6
:1023E00087B0F14801684FF0804002F025F9019074
:1023F000ED480168019802F01FF98246EB48016838
:102400004FF0804002F018F90190E8480168019807
:1024100002F012F98346514602F0B6F881464FF0B9
:102420007E5102F003F9044602F055FBCDE90401A8
:10243000DE4801684FF0804002F0FEF88346DC4839
:102440000168584602F0F8F88146D74801684FF015
:10245000804002F0F1F88346D6480168584602F001
:10246000EBF88246494602F08FF8044602F033FB4F
:10247000CDE90201DDE9042303F04CFB07464FF0F0
:102480006632CD4B02F0EFF9054602F037FBCB493F
:102490000860C64801684FF0804002F0CDF8049013
:1024A000C4480168049802F0C7F88346BE48016832
:1024B0004FF0804002F0C0F80490BD4801680498D5
:1024C00002F0BAF85946059002F0B0F8824602F0E0
:1024D00002FB064603F0D6F881F0004180464FF03B
:1024E0006632B54B02F0BFF9044602F007FBB4496F
:1024F0000860AF4801684FF0804002F09DF80190FD
:10250000AB480168019802F097F88246A748016835
:102510004FF0804002F090F80190A44801680198C3
:1025200002F08AF88346514602F02EF881464FF0B9
:102530007E5102F07BF8044602F0CDFA0746884649
:102540009A4801684FF0804002F076F8834696483A
:102550000168584602F070F88146964801684FF0CD
:10256000804002F069F8834691480168584602F0BD
:1025700063F88246494602F007F8044602F0ABFAD7
:102580003A464346CDE9020103F0C4FA05464FF04E
:102590006632894B02F067F9CDE9040102F0AEFA28
:1025A0008849086007B0BDE8F08F0FB595B01B995A
:1025B000084602F041F80C901A99084602F03CF8DF
:1025C0000A901899084602F037F809900A9901F024
:1025D000DBFF0B900C9901F0D7FF0D90FFF7DAFEAF
:1025E00014901499189802F027F8189014991A98D2
:1025F00002F022F81A9014991B9802F01DF81B9013
:102600006C4801686948006802F016F80C90684848
:1026100001686548006802F00FF80B900C9902F011
:1026200005F84FF080410D9002F006F813906048D5
:1026300001686048006801F0FFFF0C905A4801688B
:102640005A48006801F0F8FF0B900C9901F09CFFCC
:102650004FF080410D9001F0EFFF12905448016857
:10266000006801F0E9FF0D9052480168006801F030
:10267000E3FF0B904C480168006801F0DDFF099012
:102680004A480168006801F0D7FF0890099901F0F5
:10269000CDFF0A900B9901F0C9FF0C900D9901F044
:1026A00073FF119012991B9801F0C6FF0D901199BC
:1026B0001A9801F0C1FF0C900D9901F0B7FF10902E
:1026C0001199189801F0B8FF0D9013991B9801F01B
:1026D000B3FF0C900D9901F0A9FF0F9013991A9870
:1026E00001F0AAFF0D901299189801F0A5FF0C9027
:1026F0000D9901F09BFF0E903349109801F09CFF5B
:102700000D90324801680D9801F03EFF2F49086096
:102710002D490F9801F090FF0D902D4801680D98FC
:1027200001F032FF2A49086027490E9801F084FF22
:102730000D90284801680D9801F026FF2549086092
:102740002248006802F0C7F9CDE90A01109802F0AA
:10275000C2F900224FF08043CDE9020102F083F874
:10276000CDE90601159802F0B6F9CDE90401DDE9DD
:10277000062301F0D1FFCDE90801DDE90A2301F0CC
:10278000CBFFCDE90C0102F0B9F9159010480068B3
:1027900002F0A1F9CDE90A010F9802F09CF900229C
:1027A0001AE00000DF59375FB4000020B0000020BD
:1027B000BC000020B800002066A64C40C0000020ED
:1027C000C8000020CC0000200AD7A33BD000002086
:1027D000D4000020D80000204FF08043CDE9020152
:1027E00002F041F8CDE90601169802F074F9CDE93E
:1027F0000401DDE9062301F08FFFCDE90801DDE9E1
:102800000A2301F089FFCDE90C0102F077F9169057
:10281000FE48006802F05FF9CDE90A010E9802F067
:102820005AF900224FF08043CDE9020102F01BF873
:10283000CDE90601179802F04EF9CDE90401DDE972
:10284000062301F069FFCDE90801DDE90A2301F063
:1028500063FFCDE90C0102F051F91790EC4817998C
:10286000006801F0E9FE0490EA481699006801F05A
:10287000E3FE0290E848006880F00040009015995F
:1028800001F0DAFE0190029901F0D0FE0390049964
:1028900001F0CCFE059002F01EF9E04AE04BCDE9D4
:1028A000060101F0E0FFCDE90A01DE48006802F010
:1028B00012F9CDE90801DDE90A2301F02DFFCDE988
:1028C0000C0102F01BF9D7490860D148169900683D
:1028D00001F0B2FE0490CF481799006801F0ACFEF9
:1028E0000290D0480168159801F0A6FE0190029967
:1028F00001F04AFE0390049901F098FE059002F061
:10290000EAF8C64AC64BCDE9060101F0ACFFCDE9B5
:102910000A01C148006802F0DEF8CDE90801DDE9EE
:102920000A2301F0F9FECDE90C0102F0E7F8BA49FB
:102930000860B7480168159801F07EFE0490B6481B
:102940001799006801F078FE0290B6481699006861
:1029500001F072FE0190029901F068FE0390049963
:1029600001F012FE059002F0B6F8AC4AAC4BCDE98E
:10297000060101F078FFCDE90A01A648006802F0DF
:10298000AAF8CDE90801DDE90A2301F0C5FECDE989
:102990000C0102F0B3F89F490860084601681598D9
:1029A00001F04AFE04909C481699006801F044FE2C
:1029B00002909C481799006801F03EFE0190029930
:1029C00001F0E2FD0390049901F030FE059002F061
:1029D00082F8924A924BCDE9060101F044FFCDE91D
:1029E0000A018B48006802F076F8CDE90801DDE9BC
:1029F0000A2301F091FECDE90C0102F07FF8844931
:102A0000086008460168006801F016FE0C908148D5
:102A10000168006801F010FE0A907F4801680068B4
:102A200001F00AFE08907F480168006801F004FE8A
:102A30000790089901F0A8FD09900A9901F0A4FDFA
:102A40000B900C9901F0A0FD0D90FFF7A3FC1490E2
:102A500074481499006801F0EFFD724908606E48EF
:102A60001499006801F0E8FD6B4908606948149901
:102A7000006801F0E1FD6749086065481499006845
:102A800001F0DAFD62490860FFF7A8FC19B000BD4B
:102A90000FB5A5B02B99084601F0CEFD1C902A99E0
:102AA000084601F0C9FD1A902899084601F0C4FDB6
:102AB00019901A9901F068FD1B901C9901F064FDB2
:102AC0001D90FFF767FC24902499289801F0B4FD2D
:102AD000289024992A9801F0AFFD2A9024992B98E8
:102AE00001F0AAFD2B904B4801684E48006801F0A8
:102AF000A3FD1C90464801684748006801F09CFD12
:102B00001B901C9901F092FD4FF080411D9001F047
:102B100093FD23903E4801683E48006801F08CFD1B
:102B20001C903D4801683F48006801F085FD1B90FE
:102B30001C9901F029FD4FF080411D9001F07CFDB2
:102B4000229033480168006801F076FD1D903148FD
:102B50000168006801F070FD1B902F480168006853
:102B600001F06AFD19902F480168006801F064FDCA
:102B70001890199901F05AFD1A901B9901F056FD11
:102B80001C901D9901F000FD219022992B9801F0D5
:102B900053FD1D9021992A9801F04EFD1C901D991E
:102BA00001F044FD20902199289801F045FD1D90E9
:102BB00023992B9801F040FD1C901D9901F036FDE2
:102BC0001F9023992A9801F037FD1D90229928988B
:102BD00001F032FD1C901D9901F028FD1E90124954
:102BE000209801F029FD1D90104801681D9801F002
:102BF000CBFC0E4908600C491F9801F01DFD1D908B
:102C00000B4801681D9801F0BFFC13E0D8000020BC
:102C1000BC000020B8000020B40000202B137EA9C7
:102C20009F37653FB00000200AD7A33BD0000020AB
:102C3000D4000020FE490860FE491E9801F0FCFC0B
:102C40001D90FD4801681D9801F09EFCFA4908603E
:102C5000FA48006801F03FFFCDE91A01209801F021
:102C60003AFF00224FF08043CDE9120101F0FBFD55
:102C7000CDE91601259801F02EFFCDE91401DDE91B
:102C8000162301F049FDCDE91801DDE91A2301F011
:102C900043FDCDE91C0101F031FF2590E4480068B7
:102CA00001F019FFCDE91A011F9801F014FF00226D
:102CB0004FF08043CDE9120101F0D5FDCDE91601B9
:102CC000269801F008FFCDE91401DDE9162301F093
:102CD00023FDCDE91801DDE91A2301F01DFDCDE941
:102CE0001C0101F00BFF2690D348006801F0F3FEB1
:102CF000CDE91A011E9801F0EEFE00224FF080434C
:102D0000CDE9120101F0AFFDCDE91601279801F0E0
:102D1000E2FECDE91401DDE9162301F0FDFCCDE969
:102D20001801DDE91A2301F0F7FCCDE91C0101F0DF
:102D3000E5FE2790C2482799006801F07DFC1490B9
:102D4000C0482699006801F077FC1290BE480068E0
:102D500080F000401090259901F06EFC11901299BE
:102D600001F064FC1390149901F060FC159001F0DF
:102D7000B2FEB64AB64BCDE9160101F074FDCDE9BD
:102D80001A01B448006801F0A6FECDE91801DDE99A
:102D90001A2301F0C1FCCDE91C0101F0AFFEAD49E1
:102DA0000860A7482699006801F046FC1490A548E1
:102DB0002799006801F040FC1290A6480168259808
:102DC00001F03AFC1190129901F0DEFB1390149976
:102DD00001F02CFC159001F07EFE9C4A9C4BCDE945
:102DE000160101F040FDCDE91A019748006801F095
:102DF00072FECDE91801DDE91A2301F08DFCCDE961
:102E00001C0101F07BFE904908608D4801682598FF
:102E100001F012FC14908C482799006801F00CFC1A
:102E200012908C482699006801F006FC11901299C6
:102E300001F0FCFB1390149901F0A6FB159001F032
:102E40004AFE824A824BCDE9160101F00CFDCDE924
:102E50001A017C48006801F03EFECDE91801DDE969
:102E60001A2301F059FCCDE91C0101F047FE754918
:102E7000086008460168259801F0DEFB149072484E
:102E80002699006801F0D8FB1290724827990068D3
:102E900001F0D2FB1190129901F076FB1390149976
:102EA00001F0C4FB159001F016FE684A684BCDE9AD
:102EB000160101F0D8FCCDE91A016148006801F063
:102EC0000AFECDE91801DDE91A2301F025FCCDE960
:102ED0001C0101F013FE5A490860084601680068A9
:102EE00001F0AAFB1C9057480168006801F0A4FBA0
:102EF0001A9055480168006801F09EFB18905548EB
:102F00000168006801F098FB1790189901F03CFBEC
:102F100019901A9901F038FB1B901C9901F034FBB1
:102F20001D90FFF737FA24904A482499006801F071
:102F300083FB4849086044482499006801F07CFB01
:102F4000414908603F482499006801F075FB3D49FC
:102F500008603B482499006801F06EFB384908601E
:102F6000084601684FF0804001F066FB119034483C
:102F70000168119801F060FB1390324801684FF02E
:102F8000404001F059FB11902E480168119801F062
:102F900053FB1290139901F049FB4FF07E511490AE
:102FA00001F0F2FA159001F096FDCDE918012948DB
:102FB00001684FF0804001F03FFB1290204801680B
:102FC000129801F039FB14901F4801684FF08040BF
:102FD00001F032FB12901B480168129801F02CFBA3
:102FE0001390149901F0D0FA159001F074FDCDE919
:102FF0001601DDE9182302F08DFD4FF06632164B05
:10300000CDE91A0101F02FFCCDE91C0101F076FD9C
:10301000124908600F4801684FF0804001F00CFB36
:10302000169008480168169801F006FB189017E002
:10303000D40000200AD7A33BD8000020D0000020F5
:10304000BC000020B8000020B40000202B137EA993
:103050009F37653FB000002066A64C40C0000020AE
:10306000FE4801684FF0404001F0E6FA1690FC4837
:103070000168169801F0E0FA1790189901F084FAA7
:10308000199001F028FDCDE91A0102F0FBFACDE913
:103090001C0101F033FDF3490860F34801684FF06B
:1030A000804001F0C9FA1390EF480168139801F0CD
:1030B000C3FA1590E94801684FF0404001F0BCFAAE
:1030C0001390E6480168139801F0B6FA1490159928
:1030D00001F0ACFA4FF07E51169001F055FA1790BE
:1030E00001F0F9FCCDE91A01E04801684FF0804099
:1030F00001F0A2FA1490D9480168149801F09CFAE2
:103100001690D94801684FF0804001F095FA14906C
:10311000D3480168149801F08FFA1590169901F0C0
:1031200033FA179001F0D7FCCDE91801DDE91A2335
:1031300002F0F0FCCDE91C0101F0E0FCCC49086094
:10314000C848006801F0C7FCCDE9080102F0F0FDB5
:10315000CDE90C012E9801F0BEFCCDE90A01DDE9B4
:103160000C2301F080FBCDE91001BE48006801F09E
:10317000B2FCCDE9080102F08DFDCDE90C012D98DE
:1031800001F0A9FCCDE90A01DDE90C2301F06BFB9C
:10319000CDE90E01DDE9102301F05FFBCDE914015B
:1031A000B048006801F097FCCDE9080102F072FD1B
:1031B000CDE90C01AE48006801F08DFCCDE90401B9
:1031C00002F0B6FDCDE908012E9801F084FCCDE9AE
:1031D0000601DDE9082301F046FBCDE90A01DDE93E
:1031E0000C2301F040FBCDE910019E48006801F07E
:1031F00072FCCDE9040102F09BFDCDE908019C4879
:10320000006801F068FCCDE9000102F091FDCDE914
:1032100004012D9801F05FFCCDE90201DDE90423F2
:1032200001F021FBCDE90601DDE9082301F01BFBDC
:10323000CDE90C018E48006801F04DFCCDE9040198
:1032400002F028FDCDE908012C9801F044FCCDE9FD
:103250000601DDE9082301F006FBCDE90A01DDE9FD
:103260000C2301F059FACDE90E01DDE9102301F03C
:1032700053FACDE91201DDE9142302F04BFC7D4A3B
:103280007D4BCDE9160101F0EEFACDE91A014FF0C0
:1032900080417A48006801F0CFF90F9001F01BFCE3
:1032A000774A784BCDE9100101F0DDFACDE9140140
:1032B0007548006880F00040119001F00CFCCDE9E9
:1032C0001201DDE9142301F027FA704A704BCDE9B1
:1032D000160101F0C8FACDE91801DDE91A2301F061
:1032E0001BFA81F00041CDE91C0101F007FC6649A1
:1032F00008605C48006801F0EEFB4FF06632654BF9
:10330000CDE9180101F0AFFA0022634BCDE91A01B3
:1033100001F002FACDE91C0101F0F0FB514908600F
:103320005348006801F0D7FB4FF06632594BCDE9A6
:103330001A0101F098FACDE91C0101F0DFFB4C49BC
:10334000086056495048006801F0F4FB02D8534821
:103350004D49086052494C48006801F0F5FB02D81D
:103360004F48494908604E494748006801F00CF948
:103370004C49086029B000BD2DE9F04F87B04A489C
:103380004A494B4B4B4ACDE900104B494B48FEF79D
:1033900090FE4A48B0F9000001F054FB06460022B6
:1033A000474B01F0D2FA044601F0A8FB45490860FA
:1033B0004148B0F9000001F045FB06460022404BB1
:1033C00001F0C3FA044601F099FB3F49086039480F
:1033D000B0F9000001F036FB06460022384B01F040
:1033E000B4FA044601F08AFB384908603048B0F965
:1033F000000001F027FB8046354A364B01F033FAD6
:1034000006464FF0FF32344B01F09FFA044601F0BC
:1034100075FB324908602548B0F9000001F012FB45
:1034200006462B4A2B4B01F01EFA04464FF0FF32A2
:10343000294B01F08AFA804601F060FB28490860B8
:103440001948B0F9000001F0FDFA8046204A214BEE
:1034500001F009FA06464FF0FF3243E0B4000020C5
:10346000BC000020C8000020B8000020B0000020F0
:10347000CC000020EC51B81E85EB1640F000002077
:103480002B137EA99F37653FC0000020CDCCCCCC4C
:10349000CCCCEC3F66A64C400000184000002CC38A
:1034A00000002C43C40000203A0000203800002017
:1034B00036000020340000203200002030000020C0
:1034C0000000C0400001002004010020080100208D
:1034D000EB1791CDFA210940FF0FA7400C01002006
:1034E00010010020FE4B01F030FA044601F006FB0B
:1034F000FC490860FC480068FC490968CDE90010F7
:10350000FB480368F7480268FA480168FA4800680F
:10351000FFF74BF8F4480168006801F08DF802905D
:10352000F2480168006801F087F80190029901F003
:103530002BF80390FEF72EFF0490ED4801680498E5
:1035400001F07AF8059001F0C6FA804602F0D2F94F
:1035500006460022E94B01F086F90446E84AE94BA9
:1035600001F0F3F9824601F0C9FAE7490860DE4844
:103570000168006801F060F80290DD4801680068A9
:1035800001F05AF80190029900F0FEFF0390FEF757
:1035900001FF8346D5480168584601F04DF8824640
:1035A00001F099FACDE9040102F0A4F906460022DF
:1035B000D24B01F058F90446D14AD24B01F0C5F97B
:1035C000804601F09BFAD1490860C848016800684C
:1035D00001F032F80290C6480168006801F02CF84A
:1035E0000190029900F0D0FF0390FEF7D3FE8346CE
:1035F000BD480168584601F01FF8824601F06BFA99
:10360000064602F077F90022BC4BCDE9040101F037
:103610002AF90446BA4ABB4B01F097F9804601F0FB
:103620006DFABB49086007B0BDE8F08F2DE9F041A5
:1036300005460C46B7480168204600F0F7FF0746EC
:10364000B5480168384600F0F7FF0646B348016800
:10365000304600F099FFB1490860B1484168B1486F
:10366000006800F0E3FF0646AD488168304600F090
:10367000DDFFAD490860AA48C06880F0004048609E
:10368000A748C06880F000408860A8480068C8600B
:103690000868A149096800F0CFFF0646A048016804
:1036A000304600F071FF9E4908609F4948689A497A
:1036B000096800F0C1FF064699484168304600F0AD
:1036C00063FF97494860984988689349096800F002
:1036D000B3FF064692488168304600F055FF904996
:1036E00088609149C8688C49096800F0A5FF0646C2
:1036F0008B48C168304600F047FF8949C860874859
:103700000168284600F092FF8949086089480078DE
:1037100001F093F9064682480168304600F08CFFBC
:10372000854908608348007801F087F906467C489F
:103730008168304600F080FF804908607D4800784D
:1037400001F07BF907467C480168384600F074FFB9
:1037500006467B480168304600F016FF794908604C
:1037600000217848006801F0E5F90FD0754801683C
:103770007148006800F092FF734908607148016861
:103780006E48006800F08AFF704908606A48006867
:103790006F4908606748007801F04FF906466048B5
:1037A0004168304600F048FF6A490860684801688F
:1037B0006548006800F040FF0646594801683046F9
:1037C00000F037FF56490860624801685E480068AB
:1037D00000F032FF064652484168304600F029FFAB
:1037E0004F4948605A4801685848006800F024FF73
:1037F00006464B488168304600F01BFF4849886008
:10380000544801685148006800F016FF06464448D5
:10381000C168304600F00DFF4149C8604448016866
:103820004948006800F008FF06463C4801683046F9
:1038300000F0AAFE394908603D4801684348006825
:1038400000F0FAFE064633480168304600F09CFE60
:1038500030490860BDE8F0812DE9FC413E483F4910
:103860003F4B404ACDE900103F494048FEF721FC5C
:103870003E480088A0F22E5000B23C49088008461D
:10388000B0F900004FF4837190FBF1F4204601F091
:10389000D9F8374A03C231480088233000B22F4993
:1038A00008800846B0F9000001F0CCF881F0004132
:1038B00006464FF066322F4B01F047F8044601F000
:1038C0001DF92D4908600846006801F004F9064614
:1038D0002A4A2B4B00F0C7FF04462A480CC853E085
:1038E000FF0FA74014010020080100200401002060
:1038F00000010020100100200C0100200080664023
:103900001F85EB51B81E0940180100201C01002042
:1039100020010020700000206800002044000020EA
:10392000940000205C000020700100206000002056
:10393000740000206C000020780000207C00002033
:103940006400002080000020840000208800002007
:103950008C000020900000203A0000203800002059
:10396000360000203400002032000020300000200B
:10397000500000206666304040000020FCA9F1D2D3
:103980004D62703F48000020204600F0C5FE284AE6
:1039900003C2284903C901F0B1F80446264801686A
:1039A0002046FFF743FEBDE8FC812DE9F04F8BB0C8
:1039B00083468A46504601F08EF880461F4A204BC7
:1039C00000F051FFCDE902011E48006801F083F8C4
:1039D000CDE90001DDE9022300F09EFE04460D461C
:1039E000194801684FF07E5000F020FE804601F03B
:1039F00072F8064622462B4600F035FFCDE9060157
:103A000011480168584600F017FE044601F063F8BB
:103A1000CDE90401DDE9062300F07EFECDE90801D1
:103A200001F06CF8074908600BB0BDE8F08F0000AA
:103A30004800002050000020400000207B14AE47CA
:103A4000E17A743F440000203C00002008B54FF4A8
:103A5000A060FCF779FC1C208DF8000002208DF896
:103A6000010001208DF802008DF803006846FCF784
:103A700070FC08BD0EB501210846FDF78AF841F239
:103A80008730ADF804004720ADF800000020ADF805
:103A90000600ADF8020069464FF08040FDF7A4F93A
:103AA00001218807FDF7D6FF012211469007FDF797
:103AB00012FD01218807FDF7F3FC0EBD08B54FF498
:103AC000C060FCF741FC06208DF8000001208DF855
:103AD000010003208DF8020001208DF803006846E4
:103AE000FCF737FC08BD0EB501210520FDF744F8B1
:103AF000FFF7E4FF0120ADF8080048208DF80B0027
:103B000002A98248FCF77CFD00210846FCF78EFEE6
:103B10000120009000208DF804000C208DF8050095
:103B200001208DF806006846FCF78AFC0EBD08B53A
:103B30004FF4C060FCF708FC28208DF8000001203D
:103B40008DF8010003208DF8020001208DF803009C
:103B50006846FCF7FEFB08BD0EB501210920FDF704
:103B60000BF8FFF7E4FF4FF48050ADF80800482051
:103B70008DF80B0002A96648FCF742FD0C210120DC
:103B8000FCF754FE4FF48050009000208DF80400A4
:103B90000C208DF8050001208DF806006846FCF722
:103BA0004FFC0EBD08B501210C20FCF7E5FF4820B5
:103BB0008DF803000220ADF8000069465348FCF779
:103BC0001FFD48208DF803004FF40050ADF80000B1
:103BD00069464F48FCF714FD08BD10B502214B485B
:103BE000FCF7A1FD012806D14A480088401C00B21C
:103BF0004849088005E047480088401E00B2454912
:103C000008800120FCF793FC10BD10B54FF4005163
:103C10003F48FCF788FD012806D13F480088401C3A
:103C200000B23D49088005E03B480088401E00B2D4
:103C3000394908804FF48050FCF779FC10BD00B57D
:103C400087B001210420FCF7A4FF01210820FCF724
:103C500093FF4FF44070ADF8000004208DF803008E
:103C600069462B48FCF7CCFC04A8FDF7E9FB0020D3
:103C7000ADF810004FF6FF70ADF814000020ADF85D
:103C80001600ADF8120004A92448FDF7ADF8002392
:103C90001A4603212148FDF7B6FC01A8FDF7E3FB16
:103CA0000A20ADF80C0001A91C48FDF730FB0121EA
:103CB0001A48FDF7BBFE012211461848FDF70BFC20
:103CC00000211648FDF780FE01211448FDF7E8FBAE
:103CD00007B000BD0146042908D1104A24321288D9
:103CE00010B200220D4B24331A8001E0002000BFE7
:103CF00000BF70470948103000880848103000881D
:103D000020F001000549103108807047000801408B
:103D1000000C014024010020260100200008004082
:103D200008B501210C20FCF727FF3C20ADF800006E
:103D300010208DF8030003208DF8020069464248E8
:103D4000FCF75EFC3C214048FCF709FD08BD00B5CE
:103D500089B0FFF7E5FF01210220FCF71AFF0121DE
:103D60000D20FCF709FFC020ADF8200018208DF8C9
:103D7000230003208DF8220008A93348FCF740FCFB
:103D80000320ADF8200018208DF8230003208DF8C3
:103D9000220008A92D48FCF733FC41F61F40ADF87E
:103DA00018000020ADF81400ADF81A00ADF81600A8
:103DB00005A92748FDF718F86020ADF80400002099
:103DC000ADF80C000120ADF806000020ADF80A00A7
:103DD00001A91F48FDF745F808211D48FDF790FC93
:103DE0000120ADF806000020ADF80A0001A918482E
:103DF000FDF779F808211648FDF78BFC0120ADF896
:103E000006000020ADF80A0001A91148FDF7B8F836
:103E100008210F48FDF78AFC0120ADF806000020BC
:103E2000ADF80A0001A90A48FDF7F5F8082108488D
:103E3000FDF785FC01210648FDF732FC012104480D
:103E4000FDF72EFB09B000BD00080140000C014049
:103E5000000400400146002901DA484200E008461B
:103E6000704770B505460C46002D08DA0421F64867
:103E7000FCF773FC0821F448FCF771FC07E004210F
:103E8000F148FCF76CFC0821EF48FCF766FC28467B
:103E9000FFF7E0FF86B23146EC48FDF799FD002CB4
:103EA00008DA1021E848FCF758FC2021E648FCF726
:103EB00056FC07E01021E448FCF751FC2021E248C1
:103EC000FCF74BFC2046FFF7C5FF86B23146DF48C2
:103ED000FDF780FD70BD70B50546DD49284600F050
:103EE00033FE04D3DB49284600F024FE11D204211E
:103EF000D548FCF734FC0821D348FCF730FC1021EE
:103F0000D148FCF72CFC2021CF48FCF728FC0124E9
:103F100000E00024204670BD41F6F420CE49096837
:103F20004242914202DA4142CB4A1160CA490968D1
:103F3000814201DDC8490860C8490968424291428E
:103F400002DA4142C54A1160C4490968814201DD73
:103F5000C249086070472DE9F04106460F46904679
:103F60000024BF480078012802D14FF42F7406E0E6
:103F7000BC480078012801D1BB4C00E00024204659
:103F800000F052FD0546284600F06DFDBDE8F081C9
:103F90002DE9FF5F04468946B4480390B448029077
:103FA000B4480078A0B9B4480078012803D12D2086
:103FB000B249088020E0B2480078012804D16FF0AF
:103FC0002C00AE49088017E00020AC49088013E0BF
:103FD000A9480078012803D13C20A84908800BE0BB
:103FE000A7480078012804D16FF03B00A34908805E
:103FF00002E00020A149088004EB090000F014FD54
:10400000A0490860A048006800F065FD07469F4A87
:104010009F4B00F028FC054600F070FD9A490860AF
:104020009848006800F057FD0746984A994B00F001
:104030001AFC05460E469448006800F04CFD2A46DE
:104040003346CDE9000100F067FB824600F056FDE3
:104050008D490860084601688F48006800F094FAAE
:104060008D4908608548B0F9000000F0DDFC054688
:1040700089480168284600F0DCFA874908608749CA
:104080008548006800F060FD02D2844882490860DB
:1040900083498148006800F04DFD02D280487E4986
:1040A00008607D480168029800F0C6FA0646764826
:1040B0000168039800F0C0FA0746314600F064FA40
:1040C000054600F0D0FC7749086077480068FFF7A4
:1040D00002FF012802D100206F4908607148006882
:1040E00004B0BDE8F09F2DE9F84F05460C466F4E31
:1040F0006F4F0021284600F099FA0090394620467B
:1041000000F09AFA82463046009900F095FA83460C
:10411000514600F039FA814600F0A5FC8046404641
:10412000BDE8F88F10B501218807FDF782FC002853
:104130007ED060480088401C5E490880FFF71CF96B
:104140005C480088122811D15B480088404200B2C8
:104150005A4908805A48B0F900005A49088000209E
:104160005549088056490880524908805648B0F998
:10417000000000F059FC044621464B480068FFF758
:10418000B2FF524908604F48B0F900104B48B0F9EF
:104190000000FFF7FDFE4E4908604E48B0F90020D0
:1041A0004848B0F900104548B0F90000FFF7D3FEC9
:1041B0004949086045480068454909680844464936
:1041C0000968084424490860404800684049096873
:1041D000084441490968401A204908601E4800689F
:1041E000002803DB0846006800280CDA1A4800683B
:1041F000A0F57A601849086018480068A0F57A6050
:10420000164908600BE01448006800F57A6012490E
:1042100008601248006800F57A6010490860FFF7EE
:104220007BFE21480068FFF756FE38B90B4800E0D6
:1042300008E0016808480068FFF713FE01218807BD
:10424000FDF708FC10BD000000080140000400401C
:104250000000C8410000C8C134010020380100201E
:104260005C0100205D01002044FDFFFF0000A04133
:104270005839343C5E0100205A01002058010020CA
:104280005B0100204C010020500100209A9999996F
:104290009999E93F9999C93F540100200050C347BB
:1042A0000050C3C748010020C8000020000016438A
:1042B0003333733F600100202401002044010020BB
:1042C000260100204601002038000020280100209F
:1042D0002C0100203A0000203001002000B585B0FC
:1042E000012144F20400FCF747FC4FF40070ADF8E4
:1042F000100018208DF8130003208DF8120004A977
:104300002E48FCF77DF94FF48060ADF810000420D2
:104310008DF8130004A92948FCF772F94FF4E13035
:1043200000900020ADF80400ADF80600ADF80800DC
:10433000ADF80C000C20ADF80A0069462048FDF7E6
:10434000D0FB012240F225511D48FDF762FC0121FE
:104350001B48FDF752FC05B000BD08B54FF4A06046
:10436000FBF7F2FF25208DF8000001208DF80100F9
:104370008DF802008DF803006846FBF7EAFF08BDE0
:1043800070B504460D46E1B20D48FDF7A3FC00BF31
:1043900040210B48FDF70CFD0028F9D0204670BDE8
:1043A00010B5044600BF20210548FDF701FD002897
:1043B000F9D00348FDF792FC10BD00000008014051
:1043C0000038014000B587B001210820FCF7D4FB7C
:1043D00001218804FCF7DDFB4FF48060ADF8180084
:1043E00003208DF81A0018208DF81B0006A95E48DE
:1043F000FCF706F94FF40060ADF8180004208DF8C2
:104400001B0006A95848FCF7FBF827208DF804008C
:1044100003208DF805008DF8060001208DF80700B7
:1044200001A8FBF796FF4FF4165002900020ADF85C
:104430000C00ADF80E00ADF81000ADF814000C2023
:10444000ADF8120002A94948FDF74BFB012240F2EA
:1044500025514648FDF7DDFB01214448FDF7CDFB22
:1044600007B000BD10B540F225514048FDF7B6FC3D
:10447000002877D03D48FDF731FC3D4908600846EB
:104480000068592802D100203A490870384800686D
:10449000582802D1012037490870354800685A2849
:1044A00009D1002034490870344908703449087033
:1044B0003449087056E02E48006841280AD101208E
:1044C0002D49087000202D4908702D4908702D498C
:1044D000087047E02648006845280BD1002026498F
:1044E00008700120254908700020254908702549D9
:1044F000087037E01E480068422807D01C48006852
:10450000432803D01A48006844280AD100201A49D9
:1045100008701A4908701A49087001201949087072
:1045200020E013480068462807D011480068472853
:1045300003D00F48006848280BD100200E490870AE
:104540000E49087001200E49087000200D490870BE
:1045500008E00020084908700849087008490870F8
:104560000849087010BD0000000C014000480040E0
:10457000640100205E0100205A0100205B01002040
:104580005C0100205D010020F0B480EA0102D40F3C
:104590004200B2EB410F02D20246084611464A00E1
:1045A00042D0C30DDDB2C1F3C752AD1A202D35DAAA
:1045B000C1F3160141F4000204B15242C5F12006D4
:1045C00002FA06F12A411044B3EBD05F23D0C4B104
:1045D000012DA0EBC35009DCF0BC4FF0004202EA11
:1045E000C352DBB200F5000000F008BB400000F150
:1045F000807000EBC350A0F1807040EAD170490098
:1046000009E0490841EAC071A0EBC35000F5000081
:10461000400800EBC350F0BC00F0E7BA6142012251
:1046200002EB4101001BF6E7F0BC704781F000414E
:10463000AAE780F00040A7E780EA010210B502F087
:104640000043400022D04A001FD0010E01EB12614E
:10465000C0F35600C2F3560240F4000042F40002D8
:10466000A0FB022000047F39140400D0401C50EA53
:10467000124001D44000491EC2B20C0604EBD01017
:10468000401C4008802A02D003E0002010BD20F02A
:104690000100002900DA0020184310BD30B480EA80
:1046A000010202F0004530F0004221F0004013D03A
:1046B00090B1C30DD40DC2F31601C0F31600E41A75
:1046C00041F4000140F400027D34914201D3641CA6
:1046D00000E04900002C02DA30BC002070474FF4A3
:1046E00000000023914201D3891A034340084FEA96
:1046F0004101F7D151B1914202D14FF0004105E0A3
:1047000002D24FF0010101E06FF0010103EBC45050
:10471000284430BC00F069BA2DE9FE4F804681EA9A
:104720000300C00F0C46009021F0004123F000452B
:10473000B8EB0200A94105D24046214690461C46EE
:104740000B46024623F00040104347D0270DC7F325
:104750000A00C3F30A510290401A019040286BDA14
:10476000C3F3130040F4801B0098924620B100234D
:10477000D2EB030A63EB0B0B01985946C0F14002E0
:10478000504600F001FA06460D4650465946019A39
:1047900000F019FA10EB08006141002487EA115279
:1047A00084EAE7731A4340D0009A62B3019A012A5F
:1047B0004FEA075215DC001B61EB02014FF000428B
:1047C00002EA0752CDE90042001C41F58011324651
:1047D0002B4600F050FA03B0BDE8F08F404621466A
:1047E000F9E7001B61EB0201001C41F58013001882
:1047F0005B412018A2F5001747EB030140EAD57092
:10480000B6196D4111E06D084FEA360645EAC075EC
:104810004FEA0752001B61EB0201001C41F58011B9
:1048200049084FEA30000019514132462B4603B087
:10483000BDE8F04F00F010BA0098012240000023BC
:10484000D0EB020263EBE073009821464FEAE0747C
:10485000B8EB000061EB0401E9E783F000435BE79C
:1048600081F0004158E72DE9FE4F81EA030404F08E
:10487000004421F0004100944FF0000B23F000436E
:1048800050EA01045ED052EA03045BD0C3F30A5439
:10489000C1F30A552C44A4F2F3340194A0FB025452
:1048A000C1F3130141F48011C3F3130343F48013E4
:1048B00001FB024400FB034E840A970A44EA815438
:1048C00047EA8357A4FB076802958D0A05FB078515
:1048D0004FEA932C04FB0C542705029D4FEA06581F
:1048E00047EA1637B5EB08056EEB070C870E920EFC
:1048F00047EA811742EA8312A7FB0201B6EB0B01DC
:1049000064EB00042B0D43EA0C335E1844EB1C509F
:10491000DA465146E7FB0201C5F313044FEA0B33B5
:1049200043EA14534FEA0432019C43EA0603A4F11C
:104930000C040294009CCDE900B400F09CF903B093
:10494000BDE8F08F00200146F9E72DE9F04D81EA3E
:10495000030404F0004B21F0004514464FF0000A18
:1049600023F0004150EA050220D054EA01021DD094
:10497000C5F30A570246C5F31303C1F31300C1F38D
:104980000A5640F4801543F48013A7EB0608101B69
:10499000D64608F2FD3873EB050002D308F1010892
:1049A00001E092185B41B8F1000F03DA00200146E4
:1049B000BDE8F08D00204FF48011064684460EE0DD
:1049C000171B73EB050705D3121B63EB05030643A7
:1049D0004CEA010C49084FEA300092185B4150EA5A
:1049E0000107EDD152EA030012D082EA040083EA03
:1049F0000501084305D0101BAB4106D2012200235C
:104A000006E000224FF0004302E06FF00102531075
:104A10001AEB06004CEB085110EB0A0041EB0B01BE
:104A2000BDE8F04D00F018B9C10F80EAE07008440D
:104A3000CA079623002100F0E1B896230022114610
:104A400000F0DCB80EB5C10F80EAE0700844CA0778
:104A5000002140F233438DE80E000A460B4600F079
:104A60000AF903B000BD00F0004220F00040C10D83
:104A7000C0F3160040F400007F2901DA00207047DF
:104A8000962903DCC1F19601C84001E096398840BF
:104A9000002AF4D04042704770B5C1F30A5201F0C9
:104AA00000450024C1F3130140F2FF3341F48011AB
:104AB0009A4201DA002070BD40F233439A42A2F2DA
:104AC000334203DC524200F06EF800E090402C4389
:104AD000F1D0404270BD00F0004230F000400AD0FA
:104AE000C10D01F56071C0F3160042EA0151C20820
:104AF00040071143704700200146704701F0004312
:104B000030B421F0004150EA010206D00A0DA2F5AE
:104B10006072C1F31301002A02DC30BC0020704730
:104B2000440F44EAC104C100E01830BC00EBC2509D
:104B300000F05BB8002801DBC0F10040002901DB78
:104B4000C1F1004181427047002801DBC0F1004003
:104B5000002901DBC1F100418842704730B50B46A6
:104B6000014600202022012409E021FA02F59D429D
:104B700005D303FA02F5491B04FA02F52844151E71
:104B8000A2F10102F1DC30BD202A04DB203A00FA58
:104B900002F1002070479140C2F1200320FA03F394
:104BA000194390407047202A04DB203A21FA02F092
:104BB0000021704721FA02F3D040C2F12002914057
:104BC000084319467047202A06DBCB17203A41FAE2
:104BD00002F043EAE07306E041FA02F3D040C2F18A
:104BE000200291400843194670470029A8BF70472A
:104BF000401C490008BF20F00100704710B4B0FA13
:104C000080FC00FA0CF050EA010404BF10BC7047AD
:104C100049B1CCF1200421FA04F411FA0CF118BFC7
:104C2000012121430843A3EB0C01CB1D4FEA006196
:104C30004FEA102042BF002010BC704700EBC35069
:104C400010440029A4BF10BC7047401C490008BF95
:104C500020F0010010BC704710B5141E73F1000461
:104C600008DA401C41F1000192185B411A4301D15E
:104C700020F0010010BD2DE9F04D92469B4611B188
:104C8000B1FA81F202E0B0FA80F220329046FFF7EA
:104C90007BFF04460F4640EA0A0041EA0B015346F7
:104CA0005A46084313D0114653EA010019D0C8F1FF
:104CB00040025046FFF777FF05460E4650465946DC
:104CC0004246FFF761FF084305D0012004E020467B
:104CD0003946BDE8F08D0020054346EAE0762C43D6
:104CE00037430A986305E40AA0EB08000022FD0A96
:104CF00044EA47540A3002D500200146E9E701059D
:104D000010196941DDE9084500196941BDE8F04D18
:104D1000A2E770B521F0004303430CD0C1F30A555C
:104D20000024D5EB040564EB0403D617AD1AB34198
:104D300002DB0020014670BD201841EB025170BD1E
:104D4000064C074D06E0E06840F0010394E80700D8
:104D500098471034AC42F6D3FBF7EEF97C600008BC
:104D60009C6000082DE9F04D00231A461B1A8A4169
:104D700003DB00200146BDE8F08DC1F30A52C1F308
:104D8000130141F480154FF0000BD10702D1001838
:104D90006D41521E0027044640F2FF11384601EBD8
:104DA000620A3E468046024600204FF48011FFF71B
:104DB000FAFEC2197141BB1846EB0100B4EB030CBB
:104DC00075EB000C04D3E41A65EB000517460E469C
:104DD000241908F101006D4180463428E3DDF919FA
:104DE00046EB0600091BA84103D24FF0FF321346E1
:104DF00001E0002213461BEB070046EB0A51BDE819
:104E0000F04DFFF729BF0EB540F23341029100216A
:104E1000CDE900110A460B46FFF72DFF03B000BD98
:104E200070B58C1810F8015B15F0070301D110F86C
:104E3000013B2A1106D110F8012B03E010F8016B99
:104E400001F8016B5B1EF9D12B0705D40023521E1C
:104E50000DD401F8013BFAE710F8013BCB1A921C84
:104E600003E013F8015B01F8015B521EF9D5A14282
:104E7000D8D3002070BD00000FB4054B10B503A9B6
:104E8000044A029800F054FB10BC5DF814FB0000CB
:104E90008143000868010020490050EAC12018BF82
:104EA00004204A0D18BF40F0010040F2FF72B2EB3F
:104EB000515F08BF40F00200012808BF052070477D
:104EC0002DE9F74F144694B00021C4E90211159959
:104ED000079121F00045C9498D4206DC1599C4E9C6
:104EE000000117B00020BDE8F08FC549DFF814A31A
:104EF000A9423CDD0799C44E0029C44FC44A159904
:104F0000534619DDFFF7A9FC554506D0C14AC24BEF
:104F1000FFF7A3FCC4E900010AE04FF0D352BE4BF7
:104F2000FFF79BFC32463B46FFF797FCC4E90001C4
:104F300017B00120BDE8F08FFFF7EEFB554506D016
:104F4000B44AB54BFFF7E8FBC4E900010AE04FF0B3
:104F5000D352B14BFFF7E0FB32463B46FFF7DCFB99
:104F6000C4E9000117B04FF0FF30BDE8F08FAB4946
:104F7000A942159978DB21F0004183468846A84A6A
:104F8000A84BFFF770FC0022A74BFFF7C5FBFFF70C
:104F900083FD0990FFF756FD06460F469C4A53468F
:104FA000FFF761FC43465A46FFF75AFC80468A46A3
:104FB000984A994B30463946FFF755FC2A0D012592
:104FC0000B9242465346FFF74BFC032DC4E9000108
:104FD00039D00B98C1F30A51401A05EB451111392C
:104FE000814230DA9148C346784400EB0510CDF891
:104FF0000CA00C90D0E9002330463946FFF733FC73
:1050000002460B460491069058460399FFF725FC8B
:1050100080468A4602460B4658460399FFF71DFC18
:10502000049B069AFFF719FC83460C9803913946B6
:10503000D0E902233046FFF716FC5A46039BFFF7E0
:105040000CFC6D1CBDE707980028A2BF099817B09B
:10505000BDE8F08F616881F000416160099817B088
:105060004042BDE8F08FFFE784461598C1F3130175
:10507000C0F30A50A0F2F5304FEA601800F01F06A6
:10508000C6F12000139000200690079041F4801E86
:1050900005206D4676B1664A08EB00017A4452F865
:1050A000213002EB8101B3404A68139922FA01F1E1
:1050B000194305E05F4908EB0002794451F82210DA
:1050C000A1FB0E27A1FB0C131A449A4234BF012303
:1050D000002303EB070A05EB8003D3E901B70F4474
:1050E0008F4234BF0121002193448B4411B1934579
:1050F00002D903E0934501D2012100E00021C3E978
:1051000001B7514445F82010011EA0F10100C1DC97
:105110000298059F00F10050800F12900298DDE97F
:1051200003568000FFF78EFC834628460D91FFF75B
:105130006AFE6FF01D02FFF7ECFDCDE90E0130466F
:10514000FFF761FE6FF03D02FFF7E3FD80468A4600
:105150003846FFF758FE6FF05D02FFF7DAFD0746AD
:10516000424653461191FFF7D7FADDE90E23FFF7C8
:10517000D3FA5A460D9BFFF7CFFA00250E465A4642
:1051800028460D9BFFF769FBDDE90E23FFF765FB62
:1051900042465346FFF761FB3A46119BFFF760FB1F
:1051A000DFF898A0244A5346FFF75DFB0746884680
:1051B000234A244B31462846FFF755FB3A464346DF
:1051C000FFF7AAFA074688464FF0A84253463146F1
:1051D0002846FFF748FB3A464346FFF79DFA159AE3
:1051E00012F0004F04D0129A81F000415242129204
:1051F000C4E90001129817B0BDE8F08FFB21E93F28
:105200007CD90240FB21F93F7370032E8A19A33B1E
:10521000000040543163621A61B4D03DFB21394132
:1052200083C8C96D305FE43F0000E03F540F0000C9
:10523000D00E0000B20E0000182D4454FB21F93DA1
:105240003326A611460B113C2DE9FF4D21F00048F5
:1052500007460C46B8F1795F08DAFFF71DFC002815
:1052600001BF0020324904B0BDE8F08D3A46234624
:1052700010461946FFF7F7FA054602462D480E4636
:105280000B460621784400F05DF82A463346FFF7C6
:10529000EAFADDE9022382468B4638462146FFF7CB
:1052A000E2FA04460F4652465B4628463146FFF76F
:1052B000DAFA22463B46FFF7D0FA07468A464FF015
:1052C000FF3228463146FFF724FD1B4A90450ADA93
:1052D0003A465346FFF7C1FA04B00022BDE8F04D4C
:1052E000134BFFF7BDBA154A4245A8BFA8F50015F4
:1052F0004FF00004B8BF124D22462B46FFF7ADFA1F
:105300000646884622462B4600200949FFF7A5FAA3
:1053100004460D463A46534630464146FFF79DFA4D
:1053200004B022462B46BDE8F04DFFF799BA0000C5
:105330000000F03F800C00003333D33F0000E93F12
:105340000000D23F2DE9F0414F1E00EBC70104469B
:10535000D1E9000115461E4637F006020DD02A4657
:105360003346FFF780FA7F1E04EBC703D3E900231F
:10537000FFF7D2F937F00602F1D1022F25D0042F22
:1053800013D0062F18BFBDE8F0812A463346FFF739
:105390006AFAD4E90A23FFF7BFF92A463346FFF732
:1053A00062FAD4E90823FFF7B7F92A463346FFF734
:1053B0005AFAD4E90623FFF7AFF92A463346FFF736
:1053C00052FAD4E90423FFF7A7F92A463346FFF738
:1053D0004AFAD4E90223FFF79FF92A463346FFF73A
:1053E00042FAD4E90023BDE8F041FFF795B9000087
:1053F0002DE9FF4D054621F0004084B00C46B0F188
:10540000795F0BDA2846FFF747FD042808BF00F054
:1054100071F8284608B02146BDE8F08D2A460B46B3
:105420001046FFF720FA06460F462A462346FFF7A6
:105430001AFA804626488A4632463B460521784479
:10544000FFF780FF83461098029160B3214A224BF8
:1054500040465146FFF707FACDE900015A4640465B
:105460005146029BFFF7FFF982468846DDE90601B7
:105470004FF0FF32FFF74DFC52464346FFF7EDF980
:1054800032463B46FFF7EFF9DDE90623FFF7E5F982
:10549000DDE90023FFF7E1F908B02A462346BDE81D
:1054A000F04DFFF7DDB90B465A4630463946FFF757
:1054B000DAF9084A084BFFF72FF942465346FFF73F
:1054C000D2F908B02A462346BDE8F04DFFF724B9CB
:1054D000C60B0000495555555555C5BF0122FFF76C
:1054E00018BCFFF719B90022134610461146FFF702
:1054F0002CBA0000024A00201107FFF70ABC000086
:1055000001FDFFFF02E008C8121F08C1002AFAD1FE
:1055100070477047002001E001C1121F002AFBD133
:105520007047000001490860704700006C010020CE
:105530002DE9FF4F89B09B460446002506E025284B
:105540000BD05A460B999047641C6D1C207800289C
:10555000F5D10DB02846BDE8F08F0027B8460122EE
:10556000474900E0074314F8013F203B02FA03F0EB
:105570000842F7D120782E2819D114F8010F47F0EE
:1055800004072A280ED06FF02F022078A0F13001F6
:1055900009290CD808EB880102EB410100EB010856
:1055A000641CF2E70A98641C50F8048B0A90207877
:1055B0000028CED0642808D0692806D075281ED0CF
:1055C0005A460B9990476D1C58E00A994FF00A090A
:1055D00001C90A91002802DA40422D2102E0390572
:1055E00004D52B218DF82010012103E0F90704D008
:1055F0002021F7E78A4608AE0DE00021FAE70A9974
:105600004FF00A0901C90A91F7E74946FFF7A6FAE0
:10561000303106F8011D0028F7D1ADEB060000F18E
:105620002009780701D44FF00108C84502DDA8EB36
:10563000090000E000208046002706E008A85A463E
:10564000C05D0B9990476D1C7F1C5745F6DB04E04D
:1056500030205A460B9990476D1CB8F10001A8F113
:105660000108F5DC05E016F8010B5A460B99904746
:105670006D1CB9F10001A9F10109F4DC641C65E7B6
:10568000092801002DE9F04D8D4F21F0004A86B028
:1056900005460C46BA452ADBAAEB070028430AD088
:1056A0008848824501DC1AD1CDB106B02846BDE854
:1056B000F04DFFF713BF844A844B2846FFF7D3F819
:1056C00007460E46824A834B28462146FFF7CBF811
:1056D00006B03A463346BDE8F04DFFF71DB801204D
:1056E000FFF720FF06B0BDE8F04DFFF7FCBE7A489B
:1056F000824542DABAF1795F0BDA2846FFF7CCFB34
:10570000042808BFFFF7F6FE284606B02146BDE88C
:10571000F08D2A460B461046FFF7A5F88346024651
:105720006E480E460B4606217844FFF70BFE5A469C
:105730003346FFF798F8804669488A465A4633460A
:1057400004217844FFF7FEFD5A463346FFF78BF8F5
:1057500000223B46FEF7E0FF02460B46404651461C
:10576000FFF7F3F82A462346FFF77DF806B02A46EE
:105770002346BDE8F04DFEF7CFBF284624F0004198
:1057800000223D463B46FFF76BF84FF0FF32FFF734
:10579000C0FA0646024653480F460B460621784497
:1057A000FFF7D0FD32463B46FFF75DF8CDE900013B
:1057B0004D4832463B4604217844FFF7C3FD32464C
:1057C0003B46FFF750F800222B46FEF7A5FF834625
:1057D00002913046394600F0FBFA804643480D46B8
:1057E000504517DCDDE900015A46029BFFF7ADF892
:1057F00042462B46FFF737F842462B46FEF78CFF12
:105800000122FFF786FA304A304BFFF726F8304A7C
:10581000304B4CE04FF0000A52460B464046FEF734
:105820007BFFCDE9031052462B4610461946FFF781
:105830001AF832463B46FFF713F8DDE90332FFF76B
:1058400084F806460F46DDE900015A46029BFFF741
:105850007CF883460091012230463946FFF759FA19
:10586000194A1A4BFEF7FCFF06460F460122404636
:105870002946FFF74EFA5A46009BFEF7F4FF3246E0
:105880003B46FEF7EAFF06460F46012250462946F0
:10589000FFF73FFA0E4DDFF858802A464346FEF7E1
:1058A000DFFF32463B46FEF7DBFF2A464346FEF764
:1058B000D7FF002CD8BF81F0004106B0BDE8F08DC5
:1058C0000000F03F0000F07F075C143326A6913CF7
:1058D000182D4454FB21F93F0000E03FF40600007E
:1058E0000A0700007E060000940600003333EF3FF5
:1058F000FB21E93F2DE9F84F04460D4621F0004019
:1059000000917349814211DC7249884201DC06D161
:105910002CB120462946BDE8F84FFFF7DFBD6E48A1
:10592000002DCCBF6D496E49BDE8F88F6D498142AD
:1059300011DD6D498142D8BF4FF0FF366DDD204645
:105940002946FFF7A9FA042808BFFFF7D3FD204630
:105950002946BDE8F88F6549654F25F0004581422D
:1059600033DD6449814219DD002632464FF0804321
:1059700020462946FEF7D0FE80468A460122204670
:105980002946FFF7C6F900223B46FEF766FF42466E
:105990005346FEF7DAFF04460D463EE0012600229C
:1059A000BA463B4620462946FEF7B6FE80460F46DD
:1059B0000022534620462946FEF74FFF42463B460B
:1059C000FEF7C3FF04460D4627E04B4981421BDD2D
:1059D000DFF828A102260022534620462946FEF77A
:1059E00042FF00223B46FEF797FE80460F4600220C
:1059F000534620462946FEF730FF42463B46FEF717
:105A0000A4FF04460D4608E0032622462B4600204C
:105A10003B49FEF79AFF04460D4622462B461046A8
:105A20001946FEF720FF8B46824602460B46FEF7DC
:105A30001AFF07460246334888460B46062178443B
:105A4000FFF780FC52465B46FEF70DFF82462E486C
:105A50008B463A46434605217844FFF773FC3A46A5
:105A60004346FEF700FF02460B46002E50465946BD
:105A70000CDAFEF751FE22462B46FEF7F4FE01B08B
:105A800022462B46BDE8F04FFEF7EABEFEF744FE85
:105A900022462B46FEF7E7FE1C4A7A4402EBC60379
:105AA000D3E90023FEF7D9FE22462B46FEF7D5FEAA
:105AB000174A7A4402EBC603D3E90023FEF7D0FE6F
:105AC000009A002AB8BF81F00041BDE8F88F0000BD
:105AD000000010440000F07F182D4454FB21F93FD2
